:03000000020DA34B
:0C0DA300787FE4F6D8FD758161020DEA4E
:100EF6002558005363616E633064653A20004B6584
:040F0600793A200014
:100EDD00102245305243393837423635344133329A
:080EED00315A04324C4B4A4912
:100E2F00E4F555F554F553F552E47F64FEFDFCAB44
:100E3F0055AA54A953A852C3120D1D5017E5552496
:100E4F0001F555E43554F554E43553F553E4355273
:040E5F00F55280D5F3
:010E6300226C
:100E64008D5153B07FEF4E700543B0408009EF645D
:100E7400014E700353B0BF120E2F8551A043B02012
:090E8400120E2F53B0DF020E2FF5
:090F0A00AD077F017E00020E64B8
:080F1300AD07E4FFFE020E64CD
:060E8D007BFF7A0E79F9EB
:100E93008B4E8A4F8950AB4EAA4FA950120D04FFB7
:100EA3006010120F1374012550F550E4354FF54FC0
:030EB30080E422B6
:100B5C00438910D28E7F38120F0A7F01120F0A7F41
:100B6C0006120F0A7F0C120F0A75900F43808075C6
:100B7C004800754904754A00754B04AF4B7401A8C5
:100B8C0007088002C333D8FC4290054BE54B70023A
:100B9C00054A6408454A70E3AF497401A807088008
:100BAC0002C333D8FCF45290E4F54CF54DAF4DE54F
:100BBC0090A807088002C313D8FC20E06E53B0EF56
:100BCC00AF907546008F477551FF75520E7553F6F1
:100BDC008546548547557B007A00793612085C7F30
:100BEC0080120F0A120E8D7B007A007936120E934A
:100BFC007FC0120F0A7BFF7A0F7904120E93E5491E
:100C0C0025E025E02412254DF8E6FF120F13E4F53C
:100C1C004AF54B120E2F054BE54B7002054AC39457
:100C2C001EE54A6480948040EA800343B010054D71
:100C3C00E54D7002054CC39404E54C6480948050DF
:100C4C0003020BB90549E54970020548C39408E550
:100C5C0048648094805003020B8153807FE4F548F4
:100C6C00F549C3E5499404E5486480948040030247
:100C7C000B75AF49E590A807088002C313D8FC2078
:100C8C00E06853B0EFAF907546008F477551FF7514
:100C9C00520E7553F68546548547557B007A00797C
:100CAC003612085C7F80120F0A120E8D7B007A00C0
:100CBC007936120E937FC0120F0A7BFF7A0F7904DC
:100CCC00120E9374322549F8E6FF120F13E4F54A1D
:100CDC00F54B120E2F054BE54B7002054AC3941EC3
:100CEC00E54A6480948040EA800343B0100549E5EE
:080CFC004970020548020C6E6C
:100DAF00020B5CE493A3F8E493A34003F68001F2F3
:100DBF0008DFF48029E493A3F85407240CC8C33345
:100DCF00C4540F4420C8834004F456800146F6DF14
:100DDF00E4800B0102040810204080900EDDE47EB9
:100DEF00019360BCA3FF543F30E509541FFEE49309
:100DFF00A360010ECF54C025E060A840B8E493A3D0
:100E0F00FAE493A3F8E493A3C8C582C8CAC583CAFA
:100E1F00F0A3C8C582C8CAC583CADFE9DEE780BEB2
:010EF50000FC
:100D0400BB010689828A83E0225002E722BBFE02ED
:090D1400E32289828A83E4932220
:100D1D00EB9FF5F0EA9E42F0E99D42F0E89C45F02C
:010D2D0022A3
:10080000E55D2451F8E6055D22784E300702785107
:10081000E475F001120D6D020D042000EB7F2ED265
:10082000008018EF540F2490D43440D4FF30040BD0
:10083000EF24BFB41A0050032461FFE55E60021587
:100840005E0561E5617002056030070D784EE47564
:10085000F001120D6DEF020D5B020EB67403D207AC
:100860008003E4C207F55D8B4E8A4F8950E4F55E44
:10087000F560F561E55E60077F2012083B80F57545
:100880005FFFC201C200C202C203C205C206C208A3
:10089000120809FF700D3007057F0012084CAF6188
:1008A000AE6022B4255FC2D5C204120809FF24D06D
:1008B000B40A00501A75F00A785E30D50508B6FF04
:1008C0000106C6A426F620D5047002D20380D924DE
:1008D000CFB41A00EF5004C2E5D204020A4CD20190
:1008E00080C6D20080C0D20280BCD2D580BAD205E8
:1008F00080B47F2012083B2002077401B55E0040DF
:10090000F1120800FF12083B020874D208D20680D8
:1009100095120800FB120800FA120800F94A4B7001
:1009200006791D7A0B7BFF20022EE55E602A7E0091
:100930008E82758300120D2E60060EEE655F70F0DC
:10094000C2D5EBC0E0EAC0E0E9C0E0EE120A93D005
:10095000E0F9D0E0FAD0E0FB120D04FF60AAEBC092
:10096000E0EAC0E0E9C0E012083BD0E02401F9D0A1
:10097000E03400FAD0E0FBE55F0460DCD55FD980AD
:10098000877BFF7A0A798FD202809C791080027966
:1009900008C206C2088008D2D5790A8004790AC242
:1009A000D5E55F047002F55FE4FAFDFEFF12080072
:1009B000FC7B08200113120800FD7B1030000A1296
:1009C0000800FE120800FF7B20EC3382D592D55040
:1009D00013C3E43000069FFFE49EFEE42001039D64
:1009E000FDE49CFCE4CBF8C201EC700CCFCECDCC86
:1009F000E824F8F870F38017C3EF33FFEE33FEED11
:100A000033FDEC33FCEB33FB994002FB0FD8E9EBF1
:100A1000300105F8D0E0C448B201C0E00AEC4D4E08
:100A20004F78207B0070C2EAB55F0040BCC0E01286
:100A30000A95D0F0D0E0200104C4C0E0C4B201C0E7
:100A4000F0120824D0F0D5F0EB020874120D7D09E5
:100A50001153098B5808E24C08DE42098F4F099761
:0F0A60004409974908F743099D550981460981C3
:100A6F00450981470B3D5008E62D08EA2E090D2B4D
:100A7F0008EE23090B200B262A08A64800000905BB
:100A8F003F3F3F00790AA2D5200314300509B91062
:100A9F00020404B9080104A2D52006025001042063
:100AAF0002689202B55E005034C0E07F2030031917
:100ABF007F30A20272067205500F120AECC202C2F8
:100ACF0006C205C2087F30800F300503E9C0E0126F
:100ADF00083B300503D0E0F9D0E0B55ECC30051708
:100AEF007F30B9100C12083B7F583004077F788095
:100AFF0003B9080312083B3002057F2D02083B7F24
:100B0F00202008F87F2B2006F322920280CF286E38
:100B1F00756C6C2900D2011208003001F8C20178FF
:100B2F005E30D50108F60208A62D50434958120829
:100B3F00002403B405004001E4900B389312082CF5
:0D0B4F00743A12082CD203755E0402098B63
:100D2E00BB010CE58229F582E5833AF583E022507A
:100D3E0006E92582F8E622BBFE06E92582F8E222C4
:0D0D4E00E58229F582E5833AF583E49322DE
:100D5B00BB010689828A83F0225002F722BBFE0177
:020D6B00F32271
:100D6D00FAE6FB0808E6F925F0F618E6CA3AF62287
:100D7D00D083D082F8E4937012740193700DA3A305
:100D8D0093F8740193F5828883E473740293686019
:060D9D00EFA3A3A380DF19
:100EB600EFB40A07740D120EC1740A309811A8997E
:100EC600B8130CC2983098FDA899C298B811F6309C
:070ED60099FDC299F5992274
:00000001FF
